{
  "contractName": "CrowCoinCrowdsale",
  "abi": [
    {
      "constant": true,
      "inputs": [],
      "name": "rate",
      "outputs": [
        {
          "name": "",
          "type": "uint256"
        }
      ],
      "payable": false,
      "stateMutability": "view",
      "type": "function"
    },
    {
      "constant": true,
      "inputs": [],
      "name": "cap",
      "outputs": [
        {
          "name": "",
          "type": "uint256"
        }
      ],
      "payable": false,
      "stateMutability": "view",
      "type": "function"
    },
    {
      "constant": true,
      "inputs": [],
      "name": "weiRaised",
      "outputs": [
        {
          "name": "",
          "type": "uint256"
        }
      ],
      "payable": false,
      "stateMutability": "view",
      "type": "function"
    },
    {
      "constant": true,
      "inputs": [],
      "name": "capReached",
      "outputs": [
        {
          "name": "",
          "type": "bool"
        }
      ],
      "payable": false,
      "stateMutability": "view",
      "type": "function"
    },
    {
      "constant": true,
      "inputs": [],
      "name": "wallet",
      "outputs": [
        {
          "name": "",
          "type": "address"
        }
      ],
      "payable": false,
      "stateMutability": "view",
      "type": "function"
    },
    {
      "constant": false,
      "inputs": [
        {
          "name": "_beneficiary",
          "type": "address"
        }
      ],
      "name": "buyTokens",
      "outputs": [],
      "payable": true,
      "stateMutability": "payable",
      "type": "function"
    },
    {
      "constant": true,
      "inputs": [],
      "name": "token",
      "outputs": [
        {
          "name": "",
          "type": "address"
        }
      ],
      "payable": false,
      "stateMutability": "view",
      "type": "function"
    },
    {
      "inputs": [
        {
          "name": "_rate",
          "type": "uint256"
        },
        {
          "name": "_cap",
          "type": "uint256"
        },
        {
          "name": "_token",
          "type": "address"
        }
      ],
      "payable": false,
      "stateMutability": "nonpayable",
      "type": "constructor"
    },
    {
      "payable": true,
      "stateMutability": "payable",
      "type": "fallback"
    },
    {
      "anonymous": false,
      "inputs": [
        {
          "indexed": true,
          "name": "purchaser",
          "type": "address"
        },
        {
          "indexed": true,
          "name": "beneficiary",
          "type": "address"
        },
        {
          "indexed": false,
          "name": "value",
          "type": "uint256"
        },
        {
          "indexed": false,
          "name": "amount",
          "type": "uint256"
        }
      ],
      "name": "TokenPurchase",
      "type": "event"
    },
    {
      "constant": false,
      "inputs": [
        {
          "name": "_beneficiary",
          "type": "address"
        },
        {
          "name": "_amount",
          "type": "uint256"
        }
      ],
      "name": "claimTokens",
      "outputs": [],
      "payable": true,
      "stateMutability": "payable",
      "type": "function"
    }
  ],
  "bytecode": "0x6060604052341561000f57600080fd5b60405160608061081e833981016040528080519060200190919080519060200190919080519060200190919050508183338360008311151561005057600080fd5b600073ffffffffffffffffffffffffffffffffffffffff168273ffffffffffffffffffffffffffffffffffffffff161415151561008c57600080fd5b600073ffffffffffffffffffffffffffffffffffffffff168173ffffffffffffffffffffffffffffffffffffffff16141515156100c857600080fd5b8260028190555081600160006101000a81548173ffffffffffffffffffffffffffffffffffffffff021916908373ffffffffffffffffffffffffffffffffffffffff160217905550806000806101000a81548173ffffffffffffffffffffffffffffffffffffffff021916908373ffffffffffffffffffffffffffffffffffffffff16021790555050505060008111151561016257600080fd5b80600481905550505050506106a28061017c6000396000f30060606040526004361061008e576000357c0100000000000000000000000000000000000000000000000000000000900463ffffffff1680632c4e722e14610099578063355274ea146100c25780634042b66f146100eb5780634f93594514610114578063521eb27314610141578063ec8ac4d814610196578063fc0c546a146101c4578063fe417fa514610219575b61009733610250565b005b34156100a457600080fd5b6100ac61031e565b6040518082815260200191505060405180910390f35b34156100cd57600080fd5b6100d5610324565b6040518082815260200191505060405180910390f35b34156100f657600080fd5b6100fe61032a565b6040518082815260200191505060405180910390f35b341561011f57600080fd5b610127610330565b604051808215151515815260200191505060405180910390f35b341561014c57600080fd5b61015461033f565b604051808273ffffffffffffffffffffffffffffffffffffffff1673ffffffffffffffffffffffffffffffffffffffff16815260200191505060405180910390f35b6101c2600480803573ffffffffffffffffffffffffffffffffffffffff16906020019091905050610250565b005b34156101cf57600080fd5b6101d7610365565b604051808273ffffffffffffffffffffffffffffffffffffffff1673ffffffffffffffffffffffffffffffffffffffff16815260200191505060405180910390f35b61024e600480803573ffffffffffffffffffffffffffffffffffffffff1690602001909190803590602001909190505061038a565b005b600080349150610260838361040c565b6102698261043f565b90506102808260035461045d90919063ffffffff16565b600381905550610290838261047b565b8273ffffffffffffffffffffffffffffffffffffffff163373ffffffffffffffffffffffffffffffffffffffff167f623b3804fa71d67900d064613da8f94b9617215ee90799290593e1745087ad188484604051808381526020018281526020019250505060405180910390a36103078383610489565b61030f61048d565b61031983836104f1565b505050565b60025481565b60045481565b60035481565b60006004546003541015905090565b600160009054906101000a900473ffffffffffffffffffffffffffffffffffffffff1681565b6000809054906101000a900473ffffffffffffffffffffffffffffffffffffffff1681565b6000819050610399838261047b565b8273ffffffffffffffffffffffffffffffffffffffff163373ffffffffffffffffffffffffffffffffffffffff167f623b3804fa71d67900d064613da8f94b9617215ee90799290593e1745087ad18600084604051808381526020018281526020019250505060405180910390a3505050565b61041682826104f5565b60045461042e8260035461045d90919063ffffffff16565b1115151561043b57600080fd5b5050565b60006104566002548361054590919063ffffffff16565b9050919050565b600080828401905083811015151561047157fe5b8091505092915050565b6104858282610580565b5050565b5050565b600160009054906101000a900473ffffffffffffffffffffffffffffffffffffffff1673ffffffffffffffffffffffffffffffffffffffff166108fc349081150290604051600060405180830381858888f1935050505015156104ef57600080fd5b565b5050565b600073ffffffffffffffffffffffffffffffffffffffff168273ffffffffffffffffffffffffffffffffffffffff161415151561053157600080fd5b6000811415151561054157600080fd5b5050565b600080600084141561055a5760009150610579565b828402905082848281151561056b57fe5b0414151561057557fe5b8091505b5092915050565b6000809054906101000a900473ffffffffffffffffffffffffffffffffffffffff1673ffffffffffffffffffffffffffffffffffffffff166340c10f1983836000604051602001526040518363ffffffff167c0100000000000000000000000000000000000000000000000000000000028152600401808373ffffffffffffffffffffffffffffffffffffffff1673ffffffffffffffffffffffffffffffffffffffff16815260200182815260200192505050602060405180830381600087803b151561064c57600080fd5b6102c65a03f1151561065d57600080fd5b50505060405180519050151561067257600080fd5b50505600a165627a7a72305820002363e06480fd8498dac17c085f5a40c20fe56bf6fdf691d4dcc4f089398be70029",
  "source": "pragma solidity ^0.4.18;\nimport \"../node_modules/zeppelin-solidity/contracts/crowdsale/validation/CappedCrowdsale.sol\";\nimport \"../node_modules/zeppelin-solidity/contracts/crowdsale/emission/MintedCrowdsale.sol\";\nimport \"../node_modules/zeppelin-solidity/contracts/token/ERC20/MintableToken.sol\";\nimport \"./CrowCoin.sol\";\n\n\ncontract CrowCoinCrowdsale is CappedCrowdsale, MintedCrowdsale {\n\n    function CrowCoinCrowdsale(uint256 _rate, uint256 _cap, MintableToken _token) public\n        Crowdsale(_rate, msg.sender, _token)\n        CappedCrowdsale(_cap)\n        \n    {\n    }\n\n    function claimTokens(address _beneficiary, uint256 _amount) public payable {\n        uint256 tokenAmountWei = _amount;\n\n        _processPurchase(_beneficiary, tokenAmountWei);\n        TokenPurchase(msg.sender, _beneficiary, 0, tokenAmountWei);\n\n    }\n}\n",
  "sourcePath": "/Users/alsco/Projects/eth-web-wallet/crow-coin/contracts/CrowCoinCrowdsale.sol",
  "compiler": {
    "name": "solc",
    "version": "0.4.19+commit.c4cbbb05.Emscripten.clang"
  },
  "schemaVersion": "2.0.0",
  "updatedAt": "2018-05-06T11:19:30.253Z"
}